{
  "_format": "hh-sol-artifact-1",
  "contractName": "PolycatGirl",
  "sourceName": "contracts/PolycatGirl.sol",
  "abi": [
    {
      "inputs": [
        {
          "internalType": "string",
          "name": "preview",
          "type": "string"
        },
        {
          "internalType": "address",
          "name": "admin",
          "type": "address"
        }
      ],
      "stateMutability": "nonpayable",
      "type": "constructor"
    },
    {
      "inputs": [],
      "name": "ApprovalOwnerIsOperator",
      "type": "error"
    },
    {
      "inputs": [],
      "name": "ApprovalToCurrentOwner",
      "type": "error"
    },
    {
      "inputs": [],
      "name": "BalanceQueryZeroAddress",
      "type": "error"
    },
    {
      "inputs": [],
      "name": "ERC721ReceiverNotReceived",
      "type": "error"
    },
    {
      "inputs": [],
      "name": "InvalidCall",
      "type": "error"
    },
    {
      "inputs": [],
      "name": "NonExistentToken",
      "type": "error"
    },
    {
      "inputs": [],
      "name": "NotERC721Receiver",
      "type": "error"
    },
    {
      "anonymous": false,
      "inputs": [
        {
          "indexed": true,
          "internalType": "address",
          "name": "owner",
          "type": "address"
        },
        {
          "indexed": true,
          "internalType": "address",
          "name": "approved",
          "type": "address"
        },
        {
          "indexed": true,
          "internalType": "uint256",
          "name": "tokenId",
          "type": "uint256"
        }
      ],
      "name": "Approval",
      "type": "event"
    },
    {
      "anonymous": false,
      "inputs": [
        {
          "indexed": true,
          "internalType": "address",
          "name": "owner",
          "type": "address"
        },
        {
          "indexed": true,
          "internalType": "address",
          "name": "operator",
          "type": "address"
        },
        {
          "indexed": false,
          "internalType": "bool",
          "name": "approved",
          "type": "bool"
        }
      ],
      "name": "ApprovalForAll",
      "type": "event"
    },
    {
      "anonymous": false,
      "inputs": [
        {
          "indexed": true,
          "internalType": "address",
          "name": "previousOwner",
          "type": "address"
        },
        {
          "indexed": true,
          "internalType": "address",
          "name": "newOwner",
          "type": "address"
        }
      ],
      "name": "OwnershipTransferred",
      "type": "event"
    },
    {
      "anonymous": false,
      "inputs": [
        {
          "indexed": true,
          "internalType": "bytes32",
          "name": "role",
          "type": "bytes32"
        },
        {
          "indexed": true,
          "internalType": "bytes32",
          "name": "previousAdminRole",
          "type": "bytes32"
        },
        {
          "indexed": true,
          "internalType": "bytes32",
          "name": "newAdminRole",
          "type": "bytes32"
        }
      ],
      "name": "RoleAdminChanged",
      "type": "event"
    },
    {
      "anonymous": false,
      "inputs": [
        {
          "indexed": true,
          "internalType": "bytes32",
          "name": "role",
          "type": "bytes32"
        },
        {
          "indexed": true,
          "internalType": "address",
          "name": "account",
          "type": "address"
        },
        {
          "indexed": true,
          "internalType": "address",
          "name": "sender",
          "type": "address"
        }
      ],
      "name": "RoleGranted",
      "type": "event"
    },
    {
      "anonymous": false,
      "inputs": [
        {
          "indexed": true,
          "internalType": "bytes32",
          "name": "role",
          "type": "bytes32"
        },
        {
          "indexed": true,
          "internalType": "address",
          "name": "account",
          "type": "address"
        },
        {
          "indexed": true,
          "internalType": "address",
          "name": "sender",
          "type": "address"
        }
      ],
      "name": "RoleRevoked",
      "type": "event"
    },
    {
      "anonymous": false,
      "inputs": [
        {
          "indexed": true,
          "internalType": "address",
          "name": "from",
          "type": "address"
        },
        {
          "indexed": true,
          "internalType": "address",
          "name": "to",
          "type": "address"
        },
        {
          "indexed": true,
          "internalType": "uint256",
          "name": "tokenId",
          "type": "uint256"
        }
      ],
      "name": "Transfer",
      "type": "event"
    },
    {
      "inputs": [],
      "name": "DEFAULT_ADMIN_ROLE",
      "outputs": [
        {
          "internalType": "bytes32",
          "name": "",
          "type": "bytes32"
        }
      ],
      "stateMutability": "view",
      "type": "function"
    },
    {
      "inputs": [],
      "name": "MAX_SUPPLY",
      "outputs": [
        {
          "internalType": "uint16",
          "name": "",
          "type": "uint16"
        }
      ],
      "stateMutability": "view",
      "type": "function"
    },
    {
      "inputs": [
        {
          "internalType": "address",
          "name": "to",
          "type": "address"
        },
        {
          "internalType": "uint256",
          "name": "tokenId",
          "type": "uint256"
        }
      ],
      "name": "approve",
      "outputs": [],
      "stateMutability": "nonpayable",
      "type": "function"
    },
    {
      "inputs": [
        {
          "internalType": "address",
          "name": "owner",
          "type": "address"
        }
      ],
      "name": "balanceOf",
      "outputs": [
        {
          "internalType": "uint256",
          "name": "",
          "type": "uint256"
        }
      ],
      "stateMutability": "view",
      "type": "function"
    },
    {
      "inputs": [
        {
          "internalType": "uint256",
          "name": "tokenId",
          "type": "uint256"
        }
      ],
      "name": "getApproved",
      "outputs": [
        {
          "internalType": "address",
          "name": "",
          "type": "address"
        }
      ],
      "stateMutability": "view",
      "type": "function"
    },
    {
      "inputs": [
        {
          "internalType": "bytes32",
          "name": "role",
          "type": "bytes32"
        }
      ],
      "name": "getRoleAdmin",
      "outputs": [
        {
          "internalType": "bytes32",
          "name": "",
          "type": "bytes32"
        }
      ],
      "stateMutability": "view",
      "type": "function"
    },
    {
      "inputs": [
        {
          "internalType": "bytes32",
          "name": "role",
          "type": "bytes32"
        },
        {
          "internalType": "address",
          "name": "account",
          "type": "address"
        }
      ],
      "name": "grantRole",
      "outputs": [],
      "stateMutability": "nonpayable",
      "type": "function"
    },
    {
      "inputs": [
        {
          "internalType": "bytes32",
          "name": "role",
          "type": "bytes32"
        },
        {
          "internalType": "address",
          "name": "account",
          "type": "address"
        }
      ],
      "name": "hasRole",
      "outputs": [
        {
          "internalType": "bool",
          "name": "",
          "type": "bool"
        }
      ],
      "stateMutability": "view",
      "type": "function"
    },
    {
      "inputs": [
        {
          "internalType": "address",
          "name": "owner",
          "type": "address"
        },
        {
          "internalType": "address",
          "name": "operator",
          "type": "address"
        }
      ],
      "name": "isApprovedForAll",
      "outputs": [
        {
          "internalType": "bool",
          "name": "",
          "type": "bool"
        }
      ],
      "stateMutability": "view",
      "type": "function"
    },
    {
      "inputs": [
        {
          "internalType": "uint256",
          "name": "quantity",
          "type": "uint256"
        },
        {
          "internalType": "uint256",
          "name": "price",
          "type": "uint256"
        },
        {
          "internalType": "bytes",
          "name": "proof",
          "type": "bytes"
        }
      ],
      "name": "mint",
      "outputs": [],
      "stateMutability": "payable",
      "type": "function"
    },
    {
      "inputs": [
        {
          "internalType": "address",
          "name": "recipient",
          "type": "address"
        },
        {
          "internalType": "uint256",
          "name": "quantity",
          "type": "uint256"
        }
      ],
      "name": "mint",
      "outputs": [],
      "stateMutability": "nonpayable",
      "type": "function"
    },
    {
      "inputs": [
        {
          "internalType": "address",
          "name": "recipient",
          "type": "address"
        },
        {
          "internalType": "uint256",
          "name": "quantity",
          "type": "uint256"
        },
        {
          "internalType": "uint256",
          "name": "price",
          "type": "uint256"
        },
        {
          "internalType": "bytes",
          "name": "proof",
          "type": "bytes"
        }
      ],
      "name": "mint",
      "outputs": [],
      "stateMutability": "payable",
      "type": "function"
    },
    {
      "inputs": [
        {
          "internalType": "address",
          "name": "recipient",
          "type": "address"
        },
        {
          "internalType": "uint256",
          "name": "quantity",
          "type": "uint256"
        },
        {
          "internalType": "bytes",
          "name": "proof",
          "type": "bytes"
        }
      ],
      "name": "mint",
      "outputs": [],
      "stateMutability": "nonpayable",
      "type": "function"
    },
    {
      "inputs": [],
      "name": "name",
      "outputs": [
        {
          "internalType": "string",
          "name": "",
          "type": "string"
        }
      ],
      "stateMutability": "pure",
      "type": "function"
    },
    {
      "inputs": [],
      "name": "owner",
      "outputs": [
        {
          "internalType": "address",
          "name": "",
          "type": "address"
        }
      ],
      "stateMutability": "view",
      "type": "function"
    },
    {
      "inputs": [
        {
          "internalType": "uint256",
          "name": "tokenId",
          "type": "uint256"
        }
      ],
      "name": "ownerOf",
      "outputs": [
        {
          "internalType": "address",
          "name": "",
          "type": "address"
        }
      ],
      "stateMutability": "view",
      "type": "function"
    },
    {
      "inputs": [],
      "name": "renounceOwnership",
      "outputs": [],
      "stateMutability": "nonpayable",
      "type": "function"
    },
    {
      "inputs": [
        {
          "internalType": "bytes32",
          "name": "role",
          "type": "bytes32"
        },
        {
          "internalType": "address",
          "name": "account",
          "type": "address"
        }
      ],
      "name": "renounceRole",
      "outputs": [],
      "stateMutability": "nonpayable",
      "type": "function"
    },
    {
      "inputs": [
        {
          "internalType": "bytes32",
          "name": "role",
          "type": "bytes32"
        },
        {
          "internalType": "address",
          "name": "account",
          "type": "address"
        }
      ],
      "name": "revokeRole",
      "outputs": [],
      "stateMutability": "nonpayable",
      "type": "function"
    },
    {
      "inputs": [
        {
          "internalType": "address",
          "name": "from",
          "type": "address"
        },
        {
          "internalType": "address",
          "name": "to",
          "type": "address"
        },
        {
          "internalType": "uint256",
          "name": "tokenId",
          "type": "uint256"
        }
      ],
      "name": "safeTransferFrom",
      "outputs": [],
      "stateMutability": "nonpayable",
      "type": "function"
    },
    {
      "inputs": [
        {
          "internalType": "address",
          "name": "from",
          "type": "address"
        },
        {
          "internalType": "address",
          "name": "to",
          "type": "address"
        },
        {
          "internalType": "uint256",
          "name": "tokenId",
          "type": "uint256"
        },
        {
          "internalType": "bytes",
          "name": "_data",
          "type": "bytes"
        }
      ],
      "name": "safeTransferFrom",
      "outputs": [],
      "stateMutability": "nonpayable",
      "type": "function"
    },
    {
      "inputs": [
        {
          "internalType": "address",
          "name": "operator",
          "type": "address"
        },
        {
          "internalType": "bool",
          "name": "approved",
          "type": "bool"
        }
      ],
      "name": "setApprovalForAll",
      "outputs": [],
      "stateMutability": "nonpayable",
      "type": "function"
    },
    {
      "inputs": [
        {
          "internalType": "string",
          "name": "uri",
          "type": "string"
        }
      ],
      "name": "setBaseTokenURI",
      "outputs": [],
      "stateMutability": "nonpayable",
      "type": "function"
    },
    {
      "inputs": [
        {
          "internalType": "bytes4",
          "name": "interfaceId",
          "type": "bytes4"
        }
      ],
      "name": "supportsInterface",
      "outputs": [
        {
          "internalType": "bool",
          "name": "",
          "type": "bool"
        }
      ],
      "stateMutability": "view",
      "type": "function"
    },
    {
      "inputs": [],
      "name": "symbol",
      "outputs": [
        {
          "internalType": "string",
          "name": "",
          "type": "string"
        }
      ],
      "stateMutability": "pure",
      "type": "function"
    },
    {
      "inputs": [
        {
          "internalType": "uint256",
          "name": "tokenId",
          "type": "uint256"
        }
      ],
      "name": "tokenURI",
      "outputs": [
        {
          "internalType": "string",
          "name": "",
          "type": "string"
        }
      ],
      "stateMutability": "view",
      "type": "function"
    },
    {
      "inputs": [],
      "name": "totalSupply",
      "outputs": [
        {
          "internalType": "uint256",
          "name": "",
          "type": "uint256"
        }
      ],
      "stateMutability": "view",
      "type": "function"
    },
    {
      "inputs": [
        {
          "internalType": "address",
          "name": "from",
          "type": "address"
        },
        {
          "internalType": "address",
          "name": "to",
          "type": "address"
        },
        {
          "internalType": "uint256",
          "name": "tokenId",
          "type": "uint256"
        }
      ],
      "name": "transferFrom",
      "outputs": [],
      "stateMutability": "nonpayable",
      "type": "function"
    },
    {
      "inputs": [
        {
          "internalType": "address",
          "name": "newOwner",
          "type": "address"
        }
      ],
      "name": "transferOwnership",
      "outputs": [],
      "stateMutability": "nonpayable",
      "type": "function"
    },
    {
      "inputs": [
        {
          "internalType": "address",
          "name": "recipient",
          "type": "address"
        }
      ],
      "name": "withdraw",
      "outputs": [],
      "stateMutability": "nonpayable",
      "type": "function"
    }
  ],
  "bytecode": "0x60806040523480156200001157600080fd5b50604051620028af380380620028af83398101604081905262000034916200024e565b6200003f336200006f565b600160075562000051600082620000c1565b81516200006690600890602085019062000175565b5050506200037c565b600580546001600160a01b038381166001600160a01b0319831681179093556040519116919082907f8be0079c531659141344cd1fd0a4f28419497f9722a3daafe3b4186f6b6457e090600090a35050565b620000cd8282620000d1565b5050565b60008281526006602090815260408083206001600160a01b038516845290915290205460ff16620000cd5760008281526006602090815260408083206001600160a01b03851684529091529020805460ff19166001179055620001313390565b6001600160a01b0316816001600160a01b0316837f2f8788117e7eff1d82e926ec794901d17c78024a50270940304540a733656f0d60405160405180910390a45050565b82805462000183906200033f565b90600052602060002090601f016020900481019282620001a75760008555620001f2565b82601f10620001c257805160ff1916838001178555620001f2565b82800160010185558215620001f2579182015b82811115620001f2578251825591602001919060010190620001d5565b506200020092915062000204565b5090565b5b8082111562000200576000815560010162000205565b634e487b7160e01b600052604160045260246000fd5b80516001600160a01b03811681146200024957600080fd5b919050565b600080604083850312156200026257600080fd5b82516001600160401b03808211156200027a57600080fd5b818501915085601f8301126200028f57600080fd5b815181811115620002a457620002a46200021b565b604051601f8201601f19908116603f01168101908382118183101715620002cf57620002cf6200021b565b81604052828152602093508884848701011115620002ec57600080fd5b600091505b82821015620003105784820184015181830185015290830190620002f1565b82821115620003225760008484830101525b95506200033491505085820162000231565b925050509250929050565b600181811c908216806200035457607f821691505b602082108114156200037657634e487b7160e01b600052602260045260246000fd5b50919050565b612523806200038c6000396000f3fe6080604052600436106101cd5760003560e01c80636352211e116100f757806395d89b4111610095578063c87b56dd11610064578063c87b56dd14610552578063d547741f14610572578063e985e9c514610592578063f2fde38b146105b257600080fd5b806395d89b41146104d0578063a217fddf146104fd578063a22cb46514610512578063b88d4fde1461053257600080fd5b8063731133e9116100d1578063731133e91461045f5780638da5cb5b1461047257806391d148541461049057806394d008ef146104b057600080fd5b80636352211e1461040a57806370a082311461042a578063715018a61461044a57600080fd5b8063248a9ca31161016f57806336568abe1161013e57806336568abe1461038a57806340c10f19146103aa57806342842e0e146103ca57806351cff8d9146103ea57600080fd5b8063248a9ca3146102f15780632f2ff15d1461032157806330176e131461034157806332cb6b0c1461036157600080fd5b806308dc9f42116101ab57806308dc9f421461027d578063095ea7b31461029257806318160ddd146102b257806323b872dd146102d157600080fd5b806301ffc9a7146101d257806306fdde0314610207578063081812fc14610245575b600080fd5b3480156101de57600080fd5b506101f26101ed366004611d79565b6105d2565b60405190151581526020015b60405180910390f35b34801561021357600080fd5b5060408051808201909152600c81526b141bdb1e58d85d0811da5c9b60a21b60208201525b6040516101fe9190611dee565b34801561025157600080fd5b50610265610260366004611e01565b6105fd565b6040516001600160a01b0390911681526020016101fe565b61029061028b366004611ec6565b610641565b005b34801561029e57600080fd5b506102906102ad366004611f32565b610778565b3480156102be57600080fd5b506000545b6040519081526020016101fe565b3480156102dd57600080fd5b506102906102ec366004611f5c565b610808565b3480156102fd57600080fd5b506102c361030c366004611e01565b60009081526006602052604090206001015490565b34801561032d57600080fd5b5061029061033c366004611f98565b610819565b34801561034d57600080fd5b5061029061035c366004611fc4565b61083f565b34801561036d57600080fd5b506103776115b381565b60405161ffff90911681526020016101fe565b34801561039657600080fd5b506102906103a5366004611f98565b61087d565b3480156103b657600080fd5b506102906103c5366004611f32565b6108fb565b3480156103d657600080fd5b506102906103e5366004611f5c565b610954565b3480156103f657600080fd5b5061029061040536600461200d565b61096f565b34801561041657600080fd5b50610265610425366004611e01565b610a2d565b34801561043657600080fd5b506102c361044536600461200d565b610aea565b34801561045657600080fd5b50610290610b2f565b61029061046d366004612028565b610b65565b34801561047e57600080fd5b506005546001600160a01b0316610265565b34801561049c57600080fd5b506101f26104ab366004611f98565b610c44565b3480156104bc57600080fd5b506102906104cb366004612089565b610c6f565b3480156104dc57600080fd5b506040805180820190915260048152634d454f5760e01b6020820152610238565b34801561050957600080fd5b506102c3600081565b34801561051e57600080fd5b5061029061052d3660046120ca565b610d05565b34801561053e57600080fd5b5061029061054d366004612106565b610d10565b34801561055e57600080fd5b5061023861056d366004611e01565b610d1c565b34801561057e57600080fd5b5061029061058d366004611f98565b610e1b565b34801561059e57600080fd5b506101f26105ad366004612156565b610e41565b3480156105be57600080fd5b506102906105cd36600461200d565b610e6f565b60006001600160e01b03198216635b5e139f60e01b14806105f757506105f782610f0a565b92915050565b600061060882610f2f565b61062557604051634a1850bf60e11b815260040160405180910390fd5b506000908152600360205260409020546001600160a01b031690565b6002600754141561066d5760405162461bcd60e51b815260040161066490612180565b60405180910390fd5b600260075560005433906115b3906106869086906121cd565b11806107325750604051691c1d589b1a58db5a5b9d60b21b6020820152602a8101849052610730906000805160206124ce833981519152906104ab9061072a90604a015b60408051601f1981840301815282825280516020918201207f19457468657265756d205369676e6564204d6573736167653a0a33320000000084830152603c8085019190915282518085039091018152605c909301909152815191012090565b85610f44565b155b80610745575061074284846121e5565b34105b156107635760405163574b16a760e11b815260040160405180910390fd5b61076d8185610f68565b505060016007555050565b600061078382610a2d565b9050806001600160a01b0316836001600160a01b031614156107b85760405163250fdee360e21b815260040160405180910390fd5b336001600160a01b03821681148015906107d957506107d78282610e41565b155b156107f75760405163250fdee360e21b815260040160405180910390fd5b610802848484610f82565b50505050565b61081433848484610fde565b505050565b6000828152600660205260409020600101546108358133611011565b6108148383611075565b7f850d585eb7f024ccee5e68e55f2c26cc72e1e6ee456acf62135757a5eb9d4a1061086a8133611011565b8151610814906009906020850190611cca565b6001600160a01b03811633146108ed5760405162461bcd60e51b815260206004820152602f60248201527f416363657373436f6e74726f6c3a2063616e206f6e6c792072656e6f756e636560448201526e103937b632b9903337b91039b2b63360891b6064820152608401610664565b6108f782826110fb565b5050565b6000805160206124ce8339815191526109148133611011565b6115b38261092160005490565b61092b91906121cd565b111561094a5760405163574b16a760e11b815260040160405180910390fd5b6108148383610f68565b61081483838360405180602001604052806000815250610d10565b6005546001600160a01b031633146109995760405162461bcd60e51b815260040161066490612204565b600260075414156109bc5760405162461bcd60e51b815260040161066490612180565b6002600755600980546109ce90612239565b151590506109ef5760405163574b16a760e11b815260040160405180910390fd5b6040516001600160a01b038216904780156108fc02916000818181858888f19350505050158015610a24573d6000803e3d6000fd5b50506001600755565b60008181526001602052604081205482906001600160a01b031615610a6a576000908152600160205260409020546001600160a01b031692915050565b600081118015610a7c57506000548111155b15610ad0575b6000190180610a9057610ad0565b6000818152600160205260409020546001600160a01b031615610acb576000908152600160205260409020546001600160a01b031692915050565b610a82565b50604051634a1850bf60e11b815260040160405180910390fd5b60006001600160a01b038216610b13576040516316285dcb60e11b815260040160405180910390fd5b506001600160a01b031660009081526002602052604090205490565b6005546001600160a01b03163314610b595760405162461bcd60e51b815260040161066490612204565b610b636000611162565b565b60026007541415610b885760405162461bcd60e51b815260040161066490612180565b60026007556115b383610b9a60005490565b610ba491906121cd565b1180610c095750604051651ddb1b5a5b9d60d21b60208201526bffffffffffffffffffffffff19606086901b166026820152603a8101839052610c07906000805160206124ce833981519152906104ab90610c0190605a016106ca565b84610f44565b155b80610c1c5750610c1983836121e5565b34105b15610c3a5760405163574b16a760e11b815260040160405180910390fd5b61076d8484610f68565b60009182526006602090815260408084206001600160a01b0393909316845291905290205460ff1690565b6115b382610c7c60005490565b610c8691906121cd565b1180610ce7575060405167199c99595b5a5b9d60c21b60208201526bffffffffffffffffffffffff19606085901b166028820152603c8101839052610ce5906000805160206124ce833981519152906104ab90610c0190605c016106ca565b155b1561094a5760405163574b16a760e11b815260040160405180910390fd5b6108f73383836111b4565b61080284848484611254565b6060610d2782610f2f565b610d445760405163574b16a760e11b815260040160405180910390fd5b600060098054610d5390612239565b905011610dea5760088054610d6790612239565b80601f0160208091040260200160405190810160405280929190818152602001828054610d9390612239565b8015610de05780601f10610db557610100808354040283529160200191610de0565b820191906000526020600020905b815481529060010190602001808311610dc357829003601f168201915b50505050506105f7565b6009610df5836112a1565b604051602001610e06929190612290565b60405160208183030381529060405292915050565b600082815260066020526040902060010154610e378133611011565b61081483836110fb565b6001600160a01b03918216600090815260046020908152604080832093909416825291909152205460ff1690565b6005546001600160a01b03163314610e995760405162461bcd60e51b815260040161066490612204565b6001600160a01b038116610efe5760405162461bcd60e51b815260206004820152602660248201527f4f776e61626c653a206e6577206f776e657220697320746865207a65726f206160448201526564647265737360d01b6064820152608401610664565b610f0781611162565b50565b60006001600160e01b03198216637965db0b60e01b14806105f757506105f7826113a7565b600080821180156105f7575050600054101590565b6000806000610f5385856113dc565b91509150610f608161144c565b509392505050565b6108f7828260405180602001604052806000815250611607565b60008281526003602052604080822080546001600160a01b0319166001600160a01b0387811691821790925591518593918516917f8c5be1e5ebec7d5bd14f71427d1e84f3dd0314c0f7b2291e5b200ac8c7c3b92591a4505050565b610fe9848285611614565b6110065760405163574b16a760e11b815260040160405180910390fd5b61080283838361165f565b61101b8282610c44565b6108f757611033816001600160a01b031660146117a7565b61103e8360206117a7565b60405160200161104f92919061234b565b60408051601f198184030181529082905262461bcd60e51b825261066491600401611dee565b61107f8282610c44565b6108f75760008281526006602090815260408083206001600160a01b03851684529091529020805460ff191660011790556110b73390565b6001600160a01b0316816001600160a01b0316837f2f8788117e7eff1d82e926ec794901d17c78024a50270940304540a733656f0d60405160405180910390a45050565b6111058282610c44565b156108f75760008281526006602090815260408083206001600160a01b0385168085529252808320805460ff1916905551339285917ff6391f5c32d9c69d2a47ea670b442974b53935d1edc7fd64eb21e047a839171b9190a45050565b600580546001600160a01b038381166001600160a01b0319831681179093556040519116919082907f8be0079c531659141344cd1fd0a4f28419497f9722a3daafe3b4186f6b6457e090600090a35050565b816001600160a01b0316836001600160a01b031614156111e75760405163079f14e360e51b815260040160405180910390fd5b6001600160a01b03838116600081815260046020908152604080832094871680845294825291829020805460ff191686151590811790915591519182527f17307eab39ab6107e8899845ad3d59bd9653f200f220920489ca2b5937696c31910160405180910390a3505050565b61126033858585610fde565b6000836001600160a01b03163b11801561128357506112818484848461194a565b155b1561080257604051631f11849560e21b815260040160405180910390fd5b6060816112c55750506040805180820190915260018152600360fc1b602082015290565b8160005b81156112ef57806112d9816123c0565b91506112e89050600a836123f1565b91506112c9565b60008167ffffffffffffffff81111561130a5761130a611e1a565b6040519080825280601f01601f191660200182016040528015611334576020820181803683370190505b5090505b841561139f57611349600183612405565b9150611356600a8661241c565b6113619060306121cd565b60f81b81838151811061137657611376612430565b60200101906001600160f81b031916908160001a905350611398600a866123f1565b9450611338565b949350505050565b60006001600160e01b031982166380ac58cd60e01b14806105f757506301ffc9a760e01b6001600160e01b03198316146105f7565b6000808251604114156114135760208301516040840151606085015160001a61140787828585611a41565b94509450505050611445565b82516040141561143d5760208301516040840151611432868383611b2e565b935093505050611445565b506000905060025b9250929050565b600081600481111561146057611460612446565b14156114695750565b600181600481111561147d5761147d612446565b14156114cb5760405162461bcd60e51b815260206004820152601860248201527f45434453413a20696e76616c6964207369676e617475726500000000000000006044820152606401610664565b60028160048111156114df576114df612446565b141561152d5760405162461bcd60e51b815260206004820152601f60248201527f45434453413a20696e76616c6964207369676e6174757265206c656e677468006044820152606401610664565b600381600481111561154157611541612446565b141561159a5760405162461bcd60e51b815260206004820152602260248201527f45434453413a20696e76616c6964207369676e6174757265202773272076616c604482015261756560f01b6064820152608401610664565b60048160048111156115ae576115ae612446565b1415610f075760405162461bcd60e51b815260206004820152602260248201527f45434453413a20696e76616c6964207369676e6174757265202776272076616c604482015261756560f01b6064820152608401610664565b6108148383836001611b5d565b6000816001600160a01b0316846001600160a01b0316148061164f5750836001600160a01b0316611644846105fd565b6001600160a01b0316145b8061139f575061139f8285610e41565b6001600160a01b038216158061168f575061167981610a2d565b6001600160a01b0316836001600160a01b031614155b156116ad5760405163574b16a760e11b815260040160405180910390fd5b6116b960008285610f82565b6001600160a01b038083166000818152600260209081526040808320805460019081019091559488168352808320805460001901905585835290849052812080546001600160a01b0319169092179091555490820190811180159061173357506000818152600160205260409020546001600160a01b0316155b1561176057600081815260016020526040902080546001600160a01b0319166001600160a01b0386161790555b5080826001600160a01b0316846001600160a01b03167fddf252ad1be2c89b69c2b068fc378daa952ba7f163c4a11628f55a4df523b3ef60405160405180910390a4505050565b606060006117b68360026121e5565b6117c19060026121cd565b67ffffffffffffffff8111156117d9576117d9611e1a565b6040519080825280601f01601f191660200182016040528015611803576020820181803683370190505b509050600360fc1b8160008151811061181e5761181e612430565b60200101906001600160f81b031916908160001a905350600f60fb1b8160018151811061184d5761184d612430565b60200101906001600160f81b031916908160001a90535060006118718460026121e5565b61187c9060016121cd565b90505b60018111156118f4576f181899199a1a9b1b9c1cb0b131b232b360811b85600f16601081106118b0576118b0612430565b1a60f81b8282815181106118c6576118c6612430565b60200101906001600160f81b031916908160001a90535060049490941c936118ed8161245c565b905061187f565b5083156119435760405162461bcd60e51b815260206004820181905260248201527f537472696e67733a20686578206c656e67746820696e73756666696369656e746044820152606401610664565b9392505050565b604051630a85bd0160e11b81526000906001600160a01b0385169063150b7a029061197f903390899088908890600401612473565b602060405180830381600087803b15801561199957600080fd5b505af19250505080156119c9575060408051601f3d908101601f191682019092526119c6918101906124b0565b60015b611a24573d8080156119f7576040519150601f19603f3d011682016040523d82523d6000602084013e6119fc565b606091505b508051611a1c57604051630568cbab60e01b815260040160405180910390fd5b805181602001fd5b6001600160e01b031916630a85bd0160e11b149050949350505050565b6000807f7fffffffffffffffffffffffffffffff5d576e7357a4501ddfe92f46681b20a0831115611a785750600090506003611b25565b8460ff16601b14158015611a9057508460ff16601c14155b15611aa15750600090506004611b25565b6040805160008082526020820180845289905260ff881692820192909252606081018690526080810185905260019060a0016020604051602081039080840390855afa158015611af5573d6000803e3d6000fd5b5050604051601f1901519150506001600160a01b038116611b1e57600060019250925050611b25565b9150600090505b94509492505050565b6000806001600160ff1b03831660ff84901c601b01611b4f87828885611a41565b935093505050935093915050565b821580611b7157506001600160a01b038416155b15611b8f5760405163574b16a760e11b815260040160405180910390fd5b60008054611b9e9060016121cd565b905060008054850181556001600160a01b038616808252600260209081526040808420805489019055848452600190915290912080546001600160a01b031916909117905580848101838015611bfe57506000876001600160a01b03163b115b15611c7c575b60405182906001600160a01b038916906000907fddf252ad1be2c89b69c2b068fc378daa952ba7f163c4a11628f55a4df523b3ef908290a4611c4f600088848060010195508861194a565b611c6c57604051631f11849560e21b815260040160405180910390fd5b80821415611c0457505050610802565b5b6040516001830192906001600160a01b038916906000907fddf252ad1be2c89b69c2b068fc378daa952ba7f163c4a11628f55a4df523b3ef908290a480821415611c7d5750505050505050565b828054611cd690612239565b90600052602060002090601f016020900481019282611cf85760008555611d3e565b82601f10611d1157805160ff1916838001178555611d3e565b82800160010185558215611d3e579182015b82811115611d3e578251825591602001919060010190611d23565b50611d4a929150611d4e565b5090565b5b80821115611d4a5760008155600101611d4f565b6001600160e01b031981168114610f0757600080fd5b600060208284031215611d8b57600080fd5b813561194381611d63565b60005b83811015611db1578181015183820152602001611d99565b838111156108025750506000910152565b60008151808452611dda816020860160208601611d96565b601f01601f19169290920160200192915050565b6020815260006119436020830184611dc2565b600060208284031215611e1357600080fd5b5035919050565b634e487b7160e01b600052604160045260246000fd5b600067ffffffffffffffff80841115611e4b57611e4b611e1a565b604051601f8501601f19908116603f01168101908282118183101715611e7357611e73611e1a565b81604052809350858152868686011115611e8c57600080fd5b858560208301376000602087830101525050509392505050565b600082601f830112611eb757600080fd5b61194383833560208501611e30565b600080600060608486031215611edb57600080fd5b8335925060208401359150604084013567ffffffffffffffff811115611f0057600080fd5b611f0c86828701611ea6565b9150509250925092565b80356001600160a01b0381168114611f2d57600080fd5b919050565b60008060408385031215611f4557600080fd5b611f4e83611f16565b946020939093013593505050565b600080600060608486031215611f7157600080fd5b611f7a84611f16565b9250611f8860208501611f16565b9150604084013590509250925092565b60008060408385031215611fab57600080fd5b82359150611fbb60208401611f16565b90509250929050565b600060208284031215611fd657600080fd5b813567ffffffffffffffff811115611fed57600080fd5b8201601f81018413611ffe57600080fd5b61139f84823560208401611e30565b60006020828403121561201f57600080fd5b61194382611f16565b6000806000806080858703121561203e57600080fd5b61204785611f16565b93506020850135925060408501359150606085013567ffffffffffffffff81111561207157600080fd5b61207d87828801611ea6565b91505092959194509250565b60008060006060848603121561209e57600080fd5b6120a784611f16565b925060208401359150604084013567ffffffffffffffff811115611f0057600080fd5b600080604083850312156120dd57600080fd5b6120e683611f16565b9150602083013580151581146120fb57600080fd5b809150509250929050565b6000806000806080858703121561211c57600080fd5b61212585611f16565b935061213360208601611f16565b925060408501359150606085013567ffffffffffffffff81111561207157600080fd5b6000806040838503121561216957600080fd5b61217283611f16565b9150611fbb60208401611f16565b6020808252601f908201527f5265656e7472616e637947756172643a207265656e7472616e742063616c6c00604082015260600190565b634e487b7160e01b600052601160045260246000fd5b600082198211156121e0576121e06121b7565b500190565b60008160001904831182151516156121ff576121ff6121b7565b500290565b6020808252818101527f4f776e61626c653a2063616c6c6572206973206e6f7420746865206f776e6572604082015260600190565b600181811c9082168061224d57607f821691505b6020821081141561226e57634e487b7160e01b600052602260045260246000fd5b50919050565b60008151612286818560208601611d96565b9290920192915050565b600080845481600182811c9150808316806122ac57607f831692505b60208084108214156122cc57634e487b7160e01b86526022600452602486fd5b8180156122e057600181146122f15761231e565b60ff1986168952848901965061231e565b60008b81526020902060005b868110156123165781548b8201529085019083016122fd565b505084890196505b5050505050506123426123318286612274565b64173539b7b760d91b815260050190565b95945050505050565b7f416363657373436f6e74726f6c3a206163636f756e7420000000000000000000815260008351612383816017850160208801611d96565b7001034b99036b4b9b9b4b733903937b6329607d1b60179184019182015283516123b4816028840160208801611d96565b01602801949350505050565b60006000198214156123d4576123d46121b7565b5060010190565b634e487b7160e01b600052601260045260246000fd5b600082612400576124006123db565b500490565b600082821015612417576124176121b7565b500390565b60008261242b5761242b6123db565b500690565b634e487b7160e01b600052603260045260246000fd5b634e487b7160e01b600052602160045260246000fd5b60008161246b5761246b6121b7565b506000190190565b6001600160a01b03858116825284166020820152604081018390526080606082018190526000906124a690830184611dc2565b9695505050505050565b6000602082840312156124c257600080fd5b815161194381611d6356fe9f2df0fed2c77648de5860a4cc508cd0818c85b8b8a1ab4ceeef8d981c8956a6a264697066735822122047fcd886a154db6f11dfa57bf781becfdf39da9c500d9df45ae392ab45e2f21c64736f6c63430008090033",
  "linkReferences": {},
  "deployedLinkReferences": {}
}