{
  "_format": "hh-sol-artifact-1",
  "contractName": "PolycatGirl",
  "sourceName": "contracts/PolycatGirl.sol",
  "abi": [
    {
      "inputs": [
        {
          "internalType": "string",
          "name": "preview",
          "type": "string"
        },
        {
          "internalType": "address",
          "name": "admin",
          "type": "address"
        }
      ],
      "stateMutability": "nonpayable",
      "type": "constructor"
    },
    {
      "inputs": [],
      "name": "ApprovalOwnerIsOperator",
      "type": "error"
    },
    {
      "inputs": [],
      "name": "ApprovalToCurrentOwner",
      "type": "error"
    },
    {
      "inputs": [],
      "name": "BalanceQueryZeroAddress",
      "type": "error"
    },
    {
      "inputs": [],
      "name": "ERC721ReceiverNotReceived",
      "type": "error"
    },
    {
      "inputs": [],
      "name": "InvalidCall",
      "type": "error"
    },
    {
      "inputs": [],
      "name": "NonExistentToken",
      "type": "error"
    },
    {
      "inputs": [],
      "name": "NotERC721Receiver",
      "type": "error"
    },
    {
      "anonymous": false,
      "inputs": [
        {
          "indexed": true,
          "internalType": "address",
          "name": "owner",
          "type": "address"
        },
        {
          "indexed": true,
          "internalType": "address",
          "name": "approved",
          "type": "address"
        },
        {
          "indexed": true,
          "internalType": "uint256",
          "name": "tokenId",
          "type": "uint256"
        }
      ],
      "name": "Approval",
      "type": "event"
    },
    {
      "anonymous": false,
      "inputs": [
        {
          "indexed": true,
          "internalType": "address",
          "name": "owner",
          "type": "address"
        },
        {
          "indexed": true,
          "internalType": "address",
          "name": "operator",
          "type": "address"
        },
        {
          "indexed": false,
          "internalType": "bool",
          "name": "approved",
          "type": "bool"
        }
      ],
      "name": "ApprovalForAll",
      "type": "event"
    },
    {
      "anonymous": false,
      "inputs": [
        {
          "indexed": true,
          "internalType": "address",
          "name": "previousOwner",
          "type": "address"
        },
        {
          "indexed": true,
          "internalType": "address",
          "name": "newOwner",
          "type": "address"
        }
      ],
      "name": "OwnershipTransferred",
      "type": "event"
    },
    {
      "anonymous": false,
      "inputs": [
        {
          "indexed": true,
          "internalType": "bytes32",
          "name": "role",
          "type": "bytes32"
        },
        {
          "indexed": true,
          "internalType": "bytes32",
          "name": "previousAdminRole",
          "type": "bytes32"
        },
        {
          "indexed": true,
          "internalType": "bytes32",
          "name": "newAdminRole",
          "type": "bytes32"
        }
      ],
      "name": "RoleAdminChanged",
      "type": "event"
    },
    {
      "anonymous": false,
      "inputs": [
        {
          "indexed": true,
          "internalType": "bytes32",
          "name": "role",
          "type": "bytes32"
        },
        {
          "indexed": true,
          "internalType": "address",
          "name": "account",
          "type": "address"
        },
        {
          "indexed": true,
          "internalType": "address",
          "name": "sender",
          "type": "address"
        }
      ],
      "name": "RoleGranted",
      "type": "event"
    },
    {
      "anonymous": false,
      "inputs": [
        {
          "indexed": true,
          "internalType": "bytes32",
          "name": "role",
          "type": "bytes32"
        },
        {
          "indexed": true,
          "internalType": "address",
          "name": "account",
          "type": "address"
        },
        {
          "indexed": true,
          "internalType": "address",
          "name": "sender",
          "type": "address"
        }
      ],
      "name": "RoleRevoked",
      "type": "event"
    },
    {
      "anonymous": false,
      "inputs": [
        {
          "indexed": true,
          "internalType": "address",
          "name": "from",
          "type": "address"
        },
        {
          "indexed": true,
          "internalType": "address",
          "name": "to",
          "type": "address"
        },
        {
          "indexed": true,
          "internalType": "uint256",
          "name": "tokenId",
          "type": "uint256"
        }
      ],
      "name": "Transfer",
      "type": "event"
    },
    {
      "inputs": [],
      "name": "DEFAULT_ADMIN_ROLE",
      "outputs": [
        {
          "internalType": "bytes32",
          "name": "",
          "type": "bytes32"
        }
      ],
      "stateMutability": "view",
      "type": "function"
    },
    {
      "inputs": [],
      "name": "MAX_SUPPLY",
      "outputs": [
        {
          "internalType": "uint16",
          "name": "",
          "type": "uint16"
        }
      ],
      "stateMutability": "view",
      "type": "function"
    },
    {
      "inputs": [
        {
          "internalType": "address",
          "name": "to",
          "type": "address"
        },
        {
          "internalType": "uint256",
          "name": "tokenId",
          "type": "uint256"
        }
      ],
      "name": "approve",
      "outputs": [],
      "stateMutability": "nonpayable",
      "type": "function"
    },
    {
      "inputs": [
        {
          "internalType": "address",
          "name": "owner",
          "type": "address"
        }
      ],
      "name": "balanceOf",
      "outputs": [
        {
          "internalType": "uint256",
          "name": "",
          "type": "uint256"
        }
      ],
      "stateMutability": "view",
      "type": "function"
    },
    {
      "inputs": [
        {
          "internalType": "uint256",
          "name": "tokenId",
          "type": "uint256"
        }
      ],
      "name": "getApproved",
      "outputs": [
        {
          "internalType": "address",
          "name": "",
          "type": "address"
        }
      ],
      "stateMutability": "view",
      "type": "function"
    },
    {
      "inputs": [
        {
          "internalType": "bytes32",
          "name": "role",
          "type": "bytes32"
        }
      ],
      "name": "getRoleAdmin",
      "outputs": [
        {
          "internalType": "bytes32",
          "name": "",
          "type": "bytes32"
        }
      ],
      "stateMutability": "view",
      "type": "function"
    },
    {
      "inputs": [
        {
          "internalType": "bytes32",
          "name": "role",
          "type": "bytes32"
        },
        {
          "internalType": "address",
          "name": "account",
          "type": "address"
        }
      ],
      "name": "grantRole",
      "outputs": [],
      "stateMutability": "nonpayable",
      "type": "function"
    },
    {
      "inputs": [
        {
          "internalType": "bytes32",
          "name": "role",
          "type": "bytes32"
        },
        {
          "internalType": "address",
          "name": "account",
          "type": "address"
        }
      ],
      "name": "hasRole",
      "outputs": [
        {
          "internalType": "bool",
          "name": "",
          "type": "bool"
        }
      ],
      "stateMutability": "view",
      "type": "function"
    },
    {
      "inputs": [
        {
          "internalType": "address",
          "name": "owner",
          "type": "address"
        },
        {
          "internalType": "address",
          "name": "operator",
          "type": "address"
        }
      ],
      "name": "isApprovedForAll",
      "outputs": [
        {
          "internalType": "bool",
          "name": "",
          "type": "bool"
        }
      ],
      "stateMutability": "view",
      "type": "function"
    },
    {
      "inputs": [
        {
          "internalType": "uint256",
          "name": "quantity",
          "type": "uint256"
        },
        {
          "internalType": "uint256",
          "name": "price",
          "type": "uint256"
        },
        {
          "internalType": "bytes",
          "name": "proof",
          "type": "bytes"
        }
      ],
      "name": "mint",
      "outputs": [],
      "stateMutability": "payable",
      "type": "function"
    },
    {
      "inputs": [
        {
          "internalType": "address",
          "name": "recipient",
          "type": "address"
        },
        {
          "internalType": "uint256",
          "name": "quantity",
          "type": "uint256"
        }
      ],
      "name": "mint",
      "outputs": [],
      "stateMutability": "nonpayable",
      "type": "function"
    },
    {
      "inputs": [
        {
          "internalType": "address",
          "name": "recipient",
          "type": "address"
        },
        {
          "internalType": "uint256",
          "name": "quantity",
          "type": "uint256"
        },
        {
          "internalType": "uint256",
          "name": "price",
          "type": "uint256"
        },
        {
          "internalType": "bytes",
          "name": "proof",
          "type": "bytes"
        }
      ],
      "name": "mint",
      "outputs": [],
      "stateMutability": "payable",
      "type": "function"
    },
    {
      "inputs": [
        {
          "internalType": "address",
          "name": "recipient",
          "type": "address"
        },
        {
          "internalType": "uint256",
          "name": "quantity",
          "type": "uint256"
        },
        {
          "internalType": "bytes",
          "name": "proof",
          "type": "bytes"
        }
      ],
      "name": "mint",
      "outputs": [],
      "stateMutability": "nonpayable",
      "type": "function"
    },
    {
      "inputs": [],
      "name": "name",
      "outputs": [
        {
          "internalType": "string",
          "name": "",
          "type": "string"
        }
      ],
      "stateMutability": "pure",
      "type": "function"
    },
    {
      "inputs": [],
      "name": "owner",
      "outputs": [
        {
          "internalType": "address",
          "name": "",
          "type": "address"
        }
      ],
      "stateMutability": "view",
      "type": "function"
    },
    {
      "inputs": [
        {
          "internalType": "uint256",
          "name": "tokenId",
          "type": "uint256"
        }
      ],
      "name": "ownerOf",
      "outputs": [
        {
          "internalType": "address",
          "name": "",
          "type": "address"
        }
      ],
      "stateMutability": "view",
      "type": "function"
    },
    {
      "inputs": [],
      "name": "renounceOwnership",
      "outputs": [],
      "stateMutability": "nonpayable",
      "type": "function"
    },
    {
      "inputs": [
        {
          "internalType": "bytes32",
          "name": "role",
          "type": "bytes32"
        },
        {
          "internalType": "address",
          "name": "account",
          "type": "address"
        }
      ],
      "name": "renounceRole",
      "outputs": [],
      "stateMutability": "nonpayable",
      "type": "function"
    },
    {
      "inputs": [
        {
          "internalType": "bytes32",
          "name": "role",
          "type": "bytes32"
        },
        {
          "internalType": "address",
          "name": "account",
          "type": "address"
        }
      ],
      "name": "revokeRole",
      "outputs": [],
      "stateMutability": "nonpayable",
      "type": "function"
    },
    {
      "inputs": [
        {
          "internalType": "address",
          "name": "from",
          "type": "address"
        },
        {
          "internalType": "address",
          "name": "to",
          "type": "address"
        },
        {
          "internalType": "uint256",
          "name": "tokenId",
          "type": "uint256"
        }
      ],
      "name": "safeTransferFrom",
      "outputs": [],
      "stateMutability": "nonpayable",
      "type": "function"
    },
    {
      "inputs": [
        {
          "internalType": "address",
          "name": "from",
          "type": "address"
        },
        {
          "internalType": "address",
          "name": "to",
          "type": "address"
        },
        {
          "internalType": "uint256",
          "name": "tokenId",
          "type": "uint256"
        },
        {
          "internalType": "bytes",
          "name": "_data",
          "type": "bytes"
        }
      ],
      "name": "safeTransferFrom",
      "outputs": [],
      "stateMutability": "nonpayable",
      "type": "function"
    },
    {
      "inputs": [
        {
          "internalType": "address",
          "name": "operator",
          "type": "address"
        },
        {
          "internalType": "bool",
          "name": "approved",
          "type": "bool"
        }
      ],
      "name": "setApprovalForAll",
      "outputs": [],
      "stateMutability": "nonpayable",
      "type": "function"
    },
    {
      "inputs": [
        {
          "internalType": "string",
          "name": "uri",
          "type": "string"
        }
      ],
      "name": "setBaseTokenURI",
      "outputs": [],
      "stateMutability": "nonpayable",
      "type": "function"
    },
    {
      "inputs": [
        {
          "internalType": "bytes4",
          "name": "interfaceId",
          "type": "bytes4"
        }
      ],
      "name": "supportsInterface",
      "outputs": [
        {
          "internalType": "bool",
          "name": "",
          "type": "bool"
        }
      ],
      "stateMutability": "view",
      "type": "function"
    },
    {
      "inputs": [],
      "name": "symbol",
      "outputs": [
        {
          "internalType": "string",
          "name": "",
          "type": "string"
        }
      ],
      "stateMutability": "pure",
      "type": "function"
    },
    {
      "inputs": [
        {
          "internalType": "uint256",
          "name": "tokenId",
          "type": "uint256"
        }
      ],
      "name": "tokenURI",
      "outputs": [
        {
          "internalType": "string",
          "name": "",
          "type": "string"
        }
      ],
      "stateMutability": "view",
      "type": "function"
    },
    {
      "inputs": [],
      "name": "totalSupply",
      "outputs": [
        {
          "internalType": "uint256",
          "name": "",
          "type": "uint256"
        }
      ],
      "stateMutability": "view",
      "type": "function"
    },
    {
      "inputs": [
        {
          "internalType": "address",
          "name": "from",
          "type": "address"
        },
        {
          "internalType": "address",
          "name": "to",
          "type": "address"
        },
        {
          "internalType": "uint256",
          "name": "tokenId",
          "type": "uint256"
        }
      ],
      "name": "transferFrom",
      "outputs": [],
      "stateMutability": "nonpayable",
      "type": "function"
    },
    {
      "inputs": [
        {
          "internalType": "address",
          "name": "newOwner",
          "type": "address"
        }
      ],
      "name": "transferOwnership",
      "outputs": [],
      "stateMutability": "nonpayable",
      "type": "function"
    },
    {
      "inputs": [
        {
          "internalType": "address",
          "name": "recipient",
          "type": "address"
        }
      ],
      "name": "withdraw",
      "outputs": [],
      "stateMutability": "nonpayable",
      "type": "function"
    }
  ],
  "bytecode": "0x60806040523480156200001157600080fd5b50604051620028803803806200288083398101604081905262000034916200024e565b6200003f336200006f565b600160075562000051600082620000c1565b81516200006690600890602085019062000175565b5050506200037c565b600580546001600160a01b038381166001600160a01b0319831681179093556040519116919082907f8be0079c531659141344cd1fd0a4f28419497f9722a3daafe3b4186f6b6457e090600090a35050565b620000cd8282620000d1565b5050565b60008281526006602090815260408083206001600160a01b038516845290915290205460ff16620000cd5760008281526006602090815260408083206001600160a01b03851684529091529020805460ff19166001179055620001313390565b6001600160a01b0316816001600160a01b0316837f2f8788117e7eff1d82e926ec794901d17c78024a50270940304540a733656f0d60405160405180910390a45050565b82805462000183906200033f565b90600052602060002090601f016020900481019282620001a75760008555620001f2565b82601f10620001c257805160ff1916838001178555620001f2565b82800160010185558215620001f2579182015b82811115620001f2578251825591602001919060010190620001d5565b506200020092915062000204565b5090565b5b8082111562000200576000815560010162000205565b634e487b7160e01b600052604160045260246000fd5b80516001600160a01b03811681146200024957600080fd5b919050565b600080604083850312156200026257600080fd5b82516001600160401b03808211156200027a57600080fd5b818501915085601f8301126200028f57600080fd5b815181811115620002a457620002a46200021b565b604051601f8201601f19908116603f01168101908382118183101715620002cf57620002cf6200021b565b81604052828152602093508884848701011115620002ec57600080fd5b600091505b82821015620003105784820184015181830185015290830190620002f1565b82821115620003225760008484830101525b95506200033491505085820162000231565b925050509250929050565b600181811c908216806200035457607f821691505b602082108114156200037657634e487b7160e01b600052602260045260246000fd5b50919050565b6124f4806200038c6000396000f3fe6080604052600436106101cd5760003560e01c80636352211e116100f757806395d89b4111610095578063c87b56dd11610064578063c87b56dd14610552578063d547741f14610572578063e985e9c514610592578063f2fde38b146105b257600080fd5b806395d89b41146104d0578063a217fddf146104fd578063a22cb46514610512578063b88d4fde1461053257600080fd5b8063731133e9116100d1578063731133e91461045f5780638da5cb5b1461047257806391d148541461049057806394d008ef146104b057600080fd5b80636352211e1461040a57806370a082311461042a578063715018a61461044a57600080fd5b8063248a9ca31161016f57806336568abe1161013e57806336568abe1461038a57806340c10f19146103aa57806342842e0e146103ca57806351cff8d9146103ea57600080fd5b8063248a9ca3146102f15780632f2ff15d1461032157806330176e131461034157806332cb6b0c1461036157600080fd5b806308dc9f42116101ab57806308dc9f421461027d578063095ea7b31461029257806318160ddd146102b257806323b872dd146102d157600080fd5b806301ffc9a7146101d257806306fdde0314610207578063081812fc14610245575b600080fd5b3480156101de57600080fd5b506101f26101ed366004611d1b565b6105d2565b60405190151581526020015b60405180910390f35b34801561021357600080fd5b5060408051808201909152600c81526b141bdb1e58d85d0811da5c9b60a21b60208201525b6040516101fe9190611d90565b34801561025157600080fd5b50610265610260366004611da3565b6105fd565b6040516001600160a01b0390911681526020016101fe565b61029061028b366004611e68565b610641565b005b34801561029e57600080fd5b506102906102ad366004611ed4565b610772565b3480156102be57600080fd5b506000545b6040519081526020016101fe565b3480156102dd57600080fd5b506102906102ec366004611efe565b610802565b3480156102fd57600080fd5b506102c361030c366004611da3565b60009081526006602052604090206001015490565b34801561032d57600080fd5b5061029061033c366004611f3a565b610813565b34801561034d57600080fd5b5061029061035c366004611f66565b610839565b34801561036d57600080fd5b506103776115b381565b60405161ffff90911681526020016101fe565b34801561039657600080fd5b506102906103a5366004611f3a565b610877565b3480156103b657600080fd5b506102906103c5366004611ed4565b6108f5565b3480156103d657600080fd5b506102906103e5366004611efe565b61094e565b3480156103f657600080fd5b50610290610405366004611faf565b610969565b34801561041657600080fd5b50610265610425366004611da3565b610a27565b34801561043657600080fd5b506102c3610445366004611faf565b610ae4565b34801561045657600080fd5b50610290610b29565b61029061046d366004611fca565b610b5f565b34801561047e57600080fd5b506005546001600160a01b0316610265565b34801561049c57600080fd5b506101f26104ab366004611f3a565b610c13565b3480156104bc57600080fd5b506102906104cb36600461202b565b610c3e565b3480156104dc57600080fd5b506040805180820190915260048152634d454f5760e01b6020820152610238565b34801561050957600080fd5b506102c3600081565b34801561051e57600080fd5b5061029061052d36600461206c565b610ca7565b34801561053e57600080fd5b5061029061054d3660046120a8565b610cb2565b34801561055e57600080fd5b5061023861056d366004611da3565b610cbe565b34801561057e57600080fd5b5061029061058d366004611f3a565b610dbd565b34801561059e57600080fd5b506101f26105ad3660046120f8565b610de3565b3480156105be57600080fd5b506102906105cd366004611faf565b610e11565b60006001600160e01b03198216635b5e139f60e01b14806105f757506105f782610eac565b92915050565b600061060882610ed1565b61062557604051634a1850bf60e11b815260040160405180910390fd5b506000908152600360205260409020546001600160a01b031690565b6002600754141561066d5760405162461bcd60e51b815260040161066490612122565b60405180910390fd5b600260075560005433906115b39061068690869061216f565b118061072c5750604051631b5a5b9d60e21b60208201526024810184905261072a9060008051602061249f833981519152906104ab90610724906044015b60408051601f1981840301815282825280516020918201207f19457468657265756d205369676e6564204d6573736167653a0a33320000000084830152603c8085019190915282518085039091018152605c909301909152815191012090565b85610ee6565b155b8061073f575061073c8484612187565b34105b1561075d5760405163574b16a760e11b815260040160405180910390fd5b6107678185610f0a565b505060016007555050565b600061077d82610a27565b9050806001600160a01b0316836001600160a01b031614156107b25760405163250fdee360e21b815260040160405180910390fd5b336001600160a01b03821681148015906107d357506107d18282610de3565b155b156107f15760405163250fdee360e21b815260040160405180910390fd5b6107fc848484610f24565b50505050565b61080e33848484610f80565b505050565b60008281526006602052604090206001015461082f8133610fb3565b61080e8383611017565b7f850d585eb7f024ccee5e68e55f2c26cc72e1e6ee456acf62135757a5eb9d4a106108648133610fb3565b815161080e906009906020850190611c6c565b6001600160a01b03811633146108e75760405162461bcd60e51b815260206004820152602f60248201527f416363657373436f6e74726f6c3a2063616e206f6e6c792072656e6f756e636560448201526e103937b632b9903337b91039b2b63360891b6064820152608401610664565b6108f1828261109d565b5050565b60008051602061249f83398151915261090e8133610fb3565b6115b38261091b60005490565b610925919061216f565b11156109445760405163574b16a760e11b815260040160405180910390fd5b61080e8383610f0a565b61080e83838360405180602001604052806000815250610cb2565b6005546001600160a01b031633146109935760405162461bcd60e51b8152600401610664906121a6565b600260075414156109b65760405162461bcd60e51b815260040161066490612122565b6002600755600980546109c8906121db565b151590506109e95760405163574b16a760e11b815260040160405180910390fd5b6040516001600160a01b038216904780156108fc02916000818181858888f19350505050158015610a1e573d6000803e3d6000fd5b50506001600755565b60008181526001602052604081205482906001600160a01b031615610a64576000908152600160205260409020546001600160a01b031692915050565b600081118015610a7657506000548111155b15610aca575b6000190180610a8a57610aca565b6000818152600160205260409020546001600160a01b031615610ac5576000908152600160205260409020546001600160a01b031692915050565b610a7c565b50604051634a1850bf60e11b815260040160405180910390fd5b60006001600160a01b038216610b0d576040516316285dcb60e11b815260040160405180910390fd5b506001600160a01b031660009081526002602052604090205490565b6005546001600160a01b03163314610b535760405162461bcd60e51b8152600401610664906121a6565b610b5d6000611104565b565b60026007541415610b825760405162461bcd60e51b815260040161066490612122565b60026007556115b383610b9460005490565b610b9e919061216f565b1180610bd85750610bd660008051602061249f8339815191526104ab610bd087866040516020016106c4929190612216565b84610ee6565b155b80610beb5750610be88383612187565b34105b15610c095760405163574b16a760e11b815260040160405180910390fd5b6107678484610f0a565b60009182526006602090815260408084206001600160a01b0393909316845291905290205460ff1690565b6115b382610c4b60005490565b610c55919061216f565b1180610c895750610c8760008051602061249f8339815191526104ab610bd086866040516020016106c4929190612216565b155b156109445760405163574b16a760e11b815260040160405180910390fd5b6108f1338383611156565b6107fc848484846111f6565b6060610cc982610ed1565b610ce65760405163574b16a760e11b815260040160405180910390fd5b600060098054610cf5906121db565b905011610d8c5760088054610d09906121db565b80601f0160208091040260200160405190810160405280929190818152602001828054610d35906121db565b8015610d825780601f10610d5757610100808354040283529160200191610d82565b820191906000526020600020905b815481529060010190602001808311610d6557829003601f168201915b50505050506105f7565b6009610d9783611243565b604051602001610da8929190612261565b60405160208183030381529060405292915050565b600082815260066020526040902060010154610dd98133610fb3565b61080e838361109d565b6001600160a01b03918216600090815260046020908152604080832093909416825291909152205460ff1690565b6005546001600160a01b03163314610e3b5760405162461bcd60e51b8152600401610664906121a6565b6001600160a01b038116610ea05760405162461bcd60e51b815260206004820152602660248201527f4f776e61626c653a206e6577206f776e657220697320746865207a65726f206160448201526564647265737360d01b6064820152608401610664565b610ea981611104565b50565b60006001600160e01b03198216637965db0b60e01b14806105f757506105f782611349565b600080821180156105f7575050600054101590565b6000806000610ef5858561137e565b91509150610f02816113ee565b509392505050565b6108f18282604051806020016040528060008152506115a9565b60008281526003602052604080822080546001600160a01b0319166001600160a01b0387811691821790925591518593918516917f8c5be1e5ebec7d5bd14f71427d1e84f3dd0314c0f7b2291e5b200ac8c7c3b92591a4505050565b610f8b8482856115b6565b610fa85760405163574b16a760e11b815260040160405180910390fd5b6107fc838383611601565b610fbd8282610c13565b6108f157610fd5816001600160a01b03166014611749565b610fe0836020611749565b604051602001610ff192919061231c565b60408051601f198184030181529082905262461bcd60e51b825261066491600401611d90565b6110218282610c13565b6108f15760008281526006602090815260408083206001600160a01b03851684529091529020805460ff191660011790556110593390565b6001600160a01b0316816001600160a01b0316837f2f8788117e7eff1d82e926ec794901d17c78024a50270940304540a733656f0d60405160405180910390a45050565b6110a78282610c13565b156108f15760008281526006602090815260408083206001600160a01b0385168085529252808320805460ff1916905551339285917ff6391f5c32d9c69d2a47ea670b442974b53935d1edc7fd64eb21e047a839171b9190a45050565b600580546001600160a01b038381166001600160a01b0319831681179093556040519116919082907f8be0079c531659141344cd1fd0a4f28419497f9722a3daafe3b4186f6b6457e090600090a35050565b816001600160a01b0316836001600160a01b031614156111895760405163079f14e360e51b815260040160405180910390fd5b6001600160a01b03838116600081815260046020908152604080832094871680845294825291829020805460ff191686151590811790915591519182527f17307eab39ab6107e8899845ad3d59bd9653f200f220920489ca2b5937696c31910160405180910390a3505050565b61120233858585610f80565b6000836001600160a01b03163b1180156112255750611223848484846118ec565b155b156107fc57604051631f11849560e21b815260040160405180910390fd5b6060816112675750506040805180820190915260018152600360fc1b602082015290565b8160005b8115611291578061127b81612391565b915061128a9050600a836123c2565b915061126b565b60008167ffffffffffffffff8111156112ac576112ac611dbc565b6040519080825280601f01601f1916602001820160405280156112d6576020820181803683370190505b5090505b8415611341576112eb6001836123d6565b91506112f8600a866123ed565b61130390603061216f565b60f81b81838151811061131857611318612401565b60200101906001600160f81b031916908160001a90535061133a600a866123c2565b94506112da565b949350505050565b60006001600160e01b031982166380ac58cd60e01b14806105f757506301ffc9a760e01b6001600160e01b03198316146105f7565b6000808251604114156113b55760208301516040840151606085015160001a6113a9878285856119e3565b945094505050506113e7565b8251604014156113df57602083015160408401516113d4868383611ad0565b9350935050506113e7565b506000905060025b9250929050565b600081600481111561140257611402612417565b141561140b5750565b600181600481111561141f5761141f612417565b141561146d5760405162461bcd60e51b815260206004820152601860248201527f45434453413a20696e76616c6964207369676e617475726500000000000000006044820152606401610664565b600281600481111561148157611481612417565b14156114cf5760405162461bcd60e51b815260206004820152601f60248201527f45434453413a20696e76616c6964207369676e6174757265206c656e677468006044820152606401610664565b60038160048111156114e3576114e3612417565b141561153c5760405162461bcd60e51b815260206004820152602260248201527f45434453413a20696e76616c6964207369676e6174757265202773272076616c604482015261756560f01b6064820152608401610664565b600481600481111561155057611550612417565b1415610ea95760405162461bcd60e51b815260206004820152602260248201527f45434453413a20696e76616c6964207369676e6174757265202776272076616c604482015261756560f01b6064820152608401610664565b61080e8383836001611aff565b6000816001600160a01b0316846001600160a01b031614806115f15750836001600160a01b03166115e6846105fd565b6001600160a01b0316145b8061134157506113418285610de3565b6001600160a01b0382161580611631575061161b81610a27565b6001600160a01b0316836001600160a01b031614155b1561164f5760405163574b16a760e11b815260040160405180910390fd5b61165b60008285610f24565b6001600160a01b038083166000818152600260209081526040808320805460019081019091559488168352808320805460001901905585835290849052812080546001600160a01b031916909217909155549082019081118015906116d557506000818152600160205260409020546001600160a01b0316155b1561170257600081815260016020526040902080546001600160a01b0319166001600160a01b0386161790555b5080826001600160a01b0316846001600160a01b03167fddf252ad1be2c89b69c2b068fc378daa952ba7f163c4a11628f55a4df523b3ef60405160405180910390a4505050565b60606000611758836002612187565b61176390600261216f565b67ffffffffffffffff81111561177b5761177b611dbc565b6040519080825280601f01601f1916602001820160405280156117a5576020820181803683370190505b509050600360fc1b816000815181106117c0576117c0612401565b60200101906001600160f81b031916908160001a905350600f60fb1b816001815181106117ef576117ef612401565b60200101906001600160f81b031916908160001a9053506000611813846002612187565b61181e90600161216f565b90505b6001811115611896576f181899199a1a9b1b9c1cb0b131b232b360811b85600f166010811061185257611852612401565b1a60f81b82828151811061186857611868612401565b60200101906001600160f81b031916908160001a90535060049490941c9361188f8161242d565b9050611821565b5083156118e55760405162461bcd60e51b815260206004820181905260248201527f537472696e67733a20686578206c656e67746820696e73756666696369656e746044820152606401610664565b9392505050565b604051630a85bd0160e11b81526000906001600160a01b0385169063150b7a0290611921903390899088908890600401612444565b602060405180830381600087803b15801561193b57600080fd5b505af192505050801561196b575060408051601f3d908101601f1916820190925261196891810190612481565b60015b6119c6573d808015611999576040519150601f19603f3d011682016040523d82523d6000602084013e61199e565b606091505b5080516119be57604051630568cbab60e01b815260040160405180910390fd5b805181602001fd5b6001600160e01b031916630a85bd0160e11b149050949350505050565b6000807f7fffffffffffffffffffffffffffffff5d576e7357a4501ddfe92f46681b20a0831115611a1a5750600090506003611ac7565b8460ff16601b14158015611a3257508460ff16601c14155b15611a435750600090506004611ac7565b6040805160008082526020820180845289905260ff881692820192909252606081018690526080810185905260019060a0016020604051602081039080840390855afa158015611a97573d6000803e3d6000fd5b5050604051601f1901519150506001600160a01b038116611ac057600060019250925050611ac7565b9150600090505b94509492505050565b6000806001600160ff1b03831660ff84901c601b01611af1878288856119e3565b935093505050935093915050565b821580611b1357506001600160a01b038416155b15611b315760405163574b16a760e11b815260040160405180910390fd5b60008054611b4090600161216f565b905060008054850181556001600160a01b038616808252600260209081526040808420805489019055848452600190915290912080546001600160a01b031916909117905580848101838015611ba057506000876001600160a01b03163b115b15611c1e575b60405182906001600160a01b038916906000907fddf252ad1be2c89b69c2b068fc378daa952ba7f163c4a11628f55a4df523b3ef908290a4611bf160008884806001019550886118ec565b611c0e57604051631f11849560e21b815260040160405180910390fd5b80821415611ba6575050506107fc565b5b6040516001830192906001600160a01b038916906000907fddf252ad1be2c89b69c2b068fc378daa952ba7f163c4a11628f55a4df523b3ef908290a480821415611c1f5750505050505050565b828054611c78906121db565b90600052602060002090601f016020900481019282611c9a5760008555611ce0565b82601f10611cb357805160ff1916838001178555611ce0565b82800160010185558215611ce0579182015b82811115611ce0578251825591602001919060010190611cc5565b50611cec929150611cf0565b5090565b5b80821115611cec5760008155600101611cf1565b6001600160e01b031981168114610ea957600080fd5b600060208284031215611d2d57600080fd5b81356118e581611d05565b60005b83811015611d53578181015183820152602001611d3b565b838111156107fc5750506000910152565b60008151808452611d7c816020860160208601611d38565b601f01601f19169290920160200192915050565b6020815260006118e56020830184611d64565b600060208284031215611db557600080fd5b5035919050565b634e487b7160e01b600052604160045260246000fd5b600067ffffffffffffffff80841115611ded57611ded611dbc565b604051601f8501601f19908116603f01168101908282118183101715611e1557611e15611dbc565b81604052809350858152868686011115611e2e57600080fd5b858560208301376000602087830101525050509392505050565b600082601f830112611e5957600080fd5b6118e583833560208501611dd2565b600080600060608486031215611e7d57600080fd5b8335925060208401359150604084013567ffffffffffffffff811115611ea257600080fd5b611eae86828701611e48565b9150509250925092565b80356001600160a01b0381168114611ecf57600080fd5b919050565b60008060408385031215611ee757600080fd5b611ef083611eb8565b946020939093013593505050565b600080600060608486031215611f1357600080fd5b611f1c84611eb8565b9250611f2a60208501611eb8565b9150604084013590509250925092565b60008060408385031215611f4d57600080fd5b82359150611f5d60208401611eb8565b90509250929050565b600060208284031215611f7857600080fd5b813567ffffffffffffffff811115611f8f57600080fd5b8201601f81018413611fa057600080fd5b61134184823560208401611dd2565b600060208284031215611fc157600080fd5b6118e582611eb8565b60008060008060808587031215611fe057600080fd5b611fe985611eb8565b93506020850135925060408501359150606085013567ffffffffffffffff81111561201357600080fd5b61201f87828801611e48565b91505092959194509250565b60008060006060848603121561204057600080fd5b61204984611eb8565b925060208401359150604084013567ffffffffffffffff811115611ea257600080fd5b6000806040838503121561207f57600080fd5b61208883611eb8565b91506020830135801515811461209d57600080fd5b809150509250929050565b600080600080608085870312156120be57600080fd5b6120c785611eb8565b93506120d560208601611eb8565b925060408501359150606085013567ffffffffffffffff81111561201357600080fd5b6000806040838503121561210b57600080fd5b61211483611eb8565b9150611f5d60208401611eb8565b6020808252601f908201527f5265656e7472616e637947756172643a207265656e7472616e742063616c6c00604082015260600190565b634e487b7160e01b600052601160045260246000fd5b6000821982111561218257612182612159565b500190565b60008160001904831182151516156121a1576121a1612159565b500290565b6020808252818101527f4f776e61626c653a2063616c6c6572206973206e6f7420746865206f776e6572604082015260600190565b600181811c908216806121ef57607f821691505b6020821081141561221057634e487b7160e01b600052602260045260246000fd5b50919050565b631b5a5b9d60e21b815260609290921b6bffffffffffffffffffffffff19166004830152601882015260380190565b60008151612257818560208601611d38565b9290920192915050565b600080845481600182811c91508083168061227d57607f831692505b602080841082141561229d57634e487b7160e01b86526022600452602486fd5b8180156122b157600181146122c2576122ef565b60ff198616895284890196506122ef565b60008b81526020902060005b868110156122e75781548b8201529085019083016122ce565b505084890196505b5050505050506123136123028286612245565b64173539b7b760d91b815260050190565b95945050505050565b7f416363657373436f6e74726f6c3a206163636f756e7420000000000000000000815260008351612354816017850160208801611d38565b7001034b99036b4b9b9b4b733903937b6329607d1b6017918401918201528351612385816028840160208801611d38565b01602801949350505050565b60006000198214156123a5576123a5612159565b5060010190565b634e487b7160e01b600052601260045260246000fd5b6000826123d1576123d16123ac565b500490565b6000828210156123e8576123e8612159565b500390565b6000826123fc576123fc6123ac565b500690565b634e487b7160e01b600052603260045260246000fd5b634e487b7160e01b600052602160045260246000fd5b60008161243c5761243c612159565b506000190190565b6001600160a01b038581168252841660208201526040810183905260806060820181905260009061247790830184611d64565b9695505050505050565b60006020828403121561249357600080fd5b81516118e581611d0556fe9f2df0fed2c77648de5860a4cc508cd0818c85b8b8a1ab4ceeef8d981c8956a6a26469706673582212202c1d65410f801847a319da4c9138f2f20c972386241a31bfe59c21a234ca306464736f6c63430008090033",
  "linkReferences": {},
  "deployedLinkReferences": {}
}